:020000040800F2
:10000000C80600202902000827130008AD0F0008C9
:10001000251300081F040008FD160008000000005A
:10002000000000000000000000000000531600085F
:1000300021040008000000005116000855160008B1
:10004000430200084302000843020008430200087C
:10005000430200084302000843020008430200086C
:10006000430200084302000843020008430200085C
:10007000430200084302000843020008430200084C
:10008000430200084302000843020008430200083C
:10009000430200084302000843020008430200082C
:1000A000430200084302000843020008430200081C
:1000B000430200084302000843020008430200080C
:1000C00043020008430200084302000843020008FC
:1000D00043020008430200084302000843020008EC
:1000E00043020008430200084302000843020008DC
:1000F00043020008430200084302000843020008CC
:1001000043020008430200084302000843020008BB
:1001100043020008430200084302000843020008AB
:10012000430200084302000843020008430200089B
:10013000430200084302000843020008430200088B
:10014000430200084302000843020008430200087B
:10015000430200084302000843020008430200086B
:10016000430200084302000843020008430200085B
:100170004302000843020008430200080000000098
:10018000430200084302000800F002F800F03CF8C7
:100190000AA090E8000C82448344AAF10107DA45E2
:1001A00001D100F031F8AFF2090EBAE80F0013F0F8
:1001B000010F18BFFB1A43F001031847982F0000E6
:1001C000B82F0000103A24BF78C878C1FAD8520777
:1001D00024BF30C830C144BF04680C6070470000C1
:1001E0000023002400250026103A28BF78C1FBD840
:1001F000520728BF30C148BF0B6070471FB501F0E0
:10020000A3FA1FBD10B510BD00F0CFF81146FFF7DF
:10021000F5FF01F084FA00F0EDF803B4FFF7F2FF08
:1002200003BC00F0F5F80000094880470948004782
:10023000FEE7FEE7FEE7FEE7FEE7FEE7FEE7FEE796
:10024000FEE7FEE704480549054A064B70470000F3
:10025000ED16000889010008C8000020C80600202B
:10026000C8020020C802002053EA020C00F0698096
:100270002DE9F04B4FF00006002B1FBFB3FA83F5BA
:1002800003FA05F424FA05F65E4012BF1643B2FAEB
:1002900082F502FA05F4C5F120051EBF22FA05FC1D
:1002A00044EA0C04203556EA044C4FEA144418BFC3
:1002B000641C4FF000084FF00009904271EB030CF2
:1002C00039D3002919BFB1FA81F701FA07F6B0FA5C
:1002D00080F700FA07F6C7F120071EBF20FA07FCD7
:1002E00046EA0C062037B6FBF4FCA7EB0507103FE7
:1002F00007F01F0BCBF120060CFA0BFB2CFA06F6CD
:1003000044BFB3460026202FA4BF5E464FF0000B2B
:100310005BEA060C08BF4FF0010B19EB0B09ABFBB6
:10032000027C48EB0608C01B06FB02CC0BFB03CC8F
:1003300071EB0C01C1E70B46024641464846BDE859
:10034000F08B13B54FF000004FF00001AFF30080C9
:10035000BDE81C4070474FF0000200B513469446BC
:100360009646203922BFA0E80C50A0E80C50B1F10D
:100370002001BFF4F7AF090728BFA0E80C5048BF21
:100380000CC05DF804EB890028BF40F8042B08BFBF
:10039000704748BF20F8022B11F0804F18BF00F8BB
:1003A000012B7047704770477047754600F02CF876
:1003B000AE4605006946534620F00700854618B052
:1003C00020B5FFF73FFFBDE820404FF000064FF09B
:1003D00000074FF000084FF0000B21F00701AC467A
:1003E000ACE8C009ACE8C009ACE8C009ACE8C00999
:1003F0008D46704710B50446AFF300802046BDE837
:100400001040FFF70ABF000000487047640000205A
:1004100001491820ABBEFEE7260002007047FEE748
:10042000704772B6FEE700002DE9F84FDFF8BCA177
:100430000022012503264FF00F090AF1040BAAF14F
:10044000040E00BF0B6805FA02F42340A34270D1EA
:100450000F7907F00307012F01D0022F16D187680B
:100460004FEA420806FA08FC27EA0C07D1F80CC04C
:100470000CFA08FC4CEA070CC0F808C04768A74310
:100480000C79C4F3001494403C4344600C79E44379
:10049000A4070AD0C4684FEA420C06FA0CF7BC4322
:1004A0008F6807FA0CF72743C7600C7904F0030440
:1004B000022C12D1D40800EB840CDCF82040570742
:1004C000FF0E09FA07F824EA0804D1F8108008FAA8
:1004D00007F848EA0408CCF8208004684FEA420C88
:1004E00006FA0CF7BC430F7907F0030707FA0CF77D
:1004F000274307604C6814F4403F70D03C4C276899
:1005000047F480472760246822F0030704F48044FE
:100510000094384C07EB040CDCF8084897074FEAC6
:10052000177809FA08F7BC43334FB84202D10027C5
:1005300024E054E0314FB84201D101271EE0304F92
:10054000B84201D1022719E02E4FB84201D103274A
:1005500014E02D4FB84201D104270FE02B4FB842D1
:1005600001D105270AE02A4FB84201D1062705E04C
:10057000284FB84201D1072700E0082707FA08F7FB
:100580002743CCF80878DAF800405746D1F804C081
:100590009C435FEACC2C00D51C433C60DBF8004058
:1005A0005F46D1F804C09C435FEA8C2C00D51C4305
:1005B0003C60DEF800407746D1F804C09C435FEA17
:1005C0008C3C00D51C433C60084F083F3C68D1F888
:1005D00004C09C435FEACC3C00D51C433C60521CE9
:1005E000102AFFF42FAFBDE8F88F0000083C01404F
:1005F0004438024000300140000002400004024044
:1006000000080240000C02400010024000140240AA
:1006100000180240001C02400AB1816170470904C1
:10062000FBE70000014880687047000000000020E0
:1006300070B5040025D094F83D00002520B984F859
:100640003C50204600F04EF9242084F83D002068FC
:10065000016821F0010101602068016841F4004156
:1006600001602068016821F40041016000F094FA03
:100670004D4A6168914201D84C4900E04C4988429A
:1006800001D2012070BD4B492368B0FBF1F15E68D7
:1006900026F03F060E435E606368934206D94FF42E
:1006A000967359434FF47A73B1FBF3F12368491CF5
:1006B0001E6A26F03F06314319626168914210D8E4
:1006C0004900401EB0FBF1F2521CC2F30B02042A97
:1006D00001D2042022E0B0FBF1F0401CC0F30B007B
:1006E0001CE0A268F2B301EBC10303EB0116431E49
:1006F000B3FBF6F35B1C43F480431B0549D092B374
:1007000001EBC10202EB0111401EB0FBF1F0401CF5
:10071000C0F30B0040F4804040F400402168CA69F7
:100720004CF6FF739A431043C861D4E907100143A4
:100730002068026822F0C00211430160D4E903017D
:1007400001432068826848F2FF339A431143816075
:10075000D4E9050108432168CA6822F0FF0210436A
:10076000C86001E00EE016E02068016841F0010178
:1007700001602564202084F83D00256384F83E5004
:10078000002070BD01EB4106431EB3FBF6F35B1C7A
:10079000B3E70120C2E701EB4101401EB0FBF1F0DD
:1007A000401CC0F30B00B7E7A086010080841E0048
:1007B00000093D0040420F002DE9F84F1F469046CA
:1007C0008A460446DDF82890FFF72CFF054694F88A
:1007D0003D0020287FD11923012240492046009561
:1007E00000F076FC002876D194F83C00012872D005
:1007F000012084F83C0020680168C90703D1016822
:1008000041F0010101602068016821F4006101608C
:10081000212084F83D00102084F83E000026266444
:10082000C4F824806785608D20852D48E0622B46C2
:100830004A465146204600F0D1FB90B920684169F4
:100840008069009036E02A464946204600F0E6FCE2
:1008500050B1206C042804D12068016841F4007173
:1008600001600120BDE8F88F606A216800780861A6
:10087000606A401C6062618D491E6185218D491E40
:1008800089B2218522685369DB435B070BD451B1E0
:1008900000781061606A401C6062608D401E608557
:1008A000208D401E20852A464946204600F0E4FB64
:1008B0000028CED1208D0028C5D154F83D0B016809
:1008C00041F400710160202004F81E09E677667784
:1008D0000020C7E7FFE70220C4E700000200100085
:1008E0000000FFFF10B586B0044614216846FFF7EC
:1008F00032FD13492068884220D11248016841F036
:10090000020101600068694600F002000590C02005
:1009100000901220019001200290032003900420F7
:1009200004900948FFF780FD06481030016841F443
:1009300000110160006800F40010059006B010BDC1
:1009400000540040303802400004024002488168F0
:100950000278114481607047000000200B4810B5F8
:10096000016841F400710160016841F48061016037
:10097000016841F480710160032000F061F80F20EC
:1009800000F006F800F024F8002010BD003C024002
:1009900070B50D4D04464FF47A712878B1FBF0F034
:1009A0000A490968B1FBF0F000F0ECFA48B9102CE4
:1009B00007D200222146501E00F022F800206C6071
:1009C00070BD012070BD0000000000200C00002060
:1009D0000A4808B5016841F480410160006800F4EC
:1009E000804000900548001F016841F0805101607F
:1009F000006800F08050009008BD000044380240BC
:100A0000F0B40E4B1B680C46C3F30223C3F1070579
:100A1000042D00D90425191D072901D2002300E067
:100A2000DB1E012606FA05F1491E214099409E4031
:100A3000761E16403143F0BC00F061BE0CED00E0C4
:100A4000064900F0070208684FF6FF03184040EA25
:100A50000220034A10430860704700000CED00E0DC
:100A60000000FA052DE9F0470E46050065D0DFF8D5
:100A70001481D8F80000F7B200F00700B04207D2A6
:100A800088F80070D8F8000000F00700B04254D198
:100A900028683D4C810712D5400703D5206840F4F3
:100AA000E05020602878000703D5206840F46040BB
:100AB00020602068A96820F0F000084320602878B2
:100AC000C0072DD0304968680839012812D00228A3
:100AD00013D0032811D00968890700292DDA21686D
:100AE00021F0030101432160FFF79CFD814641F2A3
:100AF000883A0EE009688903EFE709688901ECE7A5
:100B0000FFF790FDA0EB0901514502D90320BDE894
:100B1000F0872068696800F00C00B0EB810FEFD11E
:100B2000D8F80010404601F00701B14207D907701C
:100B3000006800F00700B04201D00120E7E7287804
:100B4000400705D52068E96820F4E050084320609C
:100B50002878000706D52068296920F4604040EA1B
:100B6000C100206000F028F82168084AC1F3031191
:100B7000515CC8400649086006480068FFF708FF56
:100B80000020C4E7003C0240083802405217000829
:100B90000C00002004000020044805490068096892
:100BA000044AC1F38221515CC84070470C00002008
:100BB0000838024062170008154810B5006810F0A8
:100BC0000C02144813D04110042A0FD0082A0ED169
:100BD0000F4C241F2268236802F03F025B0207D5F6
:100BE0002068C0F38810A0FB010106E0084610BD94
:100BF0002168C1F38811A1FB00010023FFF734FB3A
:100C00002168C1F30141491C4900B0FBF1F010BD5E
:100C1000083802400024F4002DE9F84F04006ED09B
:100C20002078DFF84C93C007A9F104054AD009F1F8
:100C300004000168C1F38101012908D00068C0F3F4
:100C4000810002280AD1D9F80000400206D52868A0
:100C5000800337D560680028E1D033E06068B0F5E4
:100C6000803F10D0B0F5A02F286810D020F480303D
:100C70002860286820F4802028606068A8B1FFF709
:100C8000D1FC06460DE0286840F48030F4E740F4DB
:100C900080202860F7E700BFFFF7C4FC801B6428B2
:100CA00073D828688003F7D50CE0FFF7BBFC064635
:100CB00005E000BFFFF7B6FC801B6428F0D8286869
:100CC0008003F7D42078DFF8AC8280074FF0000A69
:100CD0003ED5A748001D016811F00C0F08D0006830
:100CE000C0F3810002280BD1D9F80000400207D4DC
:100CF0002868800716D5E068012800D112E033E1AA
:100D0000E068B8B10120C8F80000FFF78BFC064688
:100D100005E000BFFFF786FC801B0228C0D82868CA
:100D20008007F7D52868216920F0F80040EAC10063
:100D300028600DE0C8F800A0FFF774FC064604E048
:100D4000FFF770FC801B02281FD828688007F7D4A3
:100D50002078000722D5864F87486169703771B1C6
:100D600001210160FFF75EFC064604E0FFF75AFC34
:100D7000801B022809D838688007F7D50EE0C0F834
:100D800000A0FFF74FFC064605E082E0FFF74AFCB3
:100D9000801B02287DD838688007F7D42078400768
:100DA00068D5DFF8CCB100270BF13C0BDBF8000075
:100DB000C0000BD4DBF8001041F08051CBF80010DC
:100DC000DBF80000012700F0805000906B4E306887
:100DD000C00510D4306840F480703060FFF722FC0A
:100DE000009005E0FFF71EFC0099401A022850D839
:100DF0003068C005F6D55E4EA0686C3601280FD06D
:100E00000528306810D020F001003060306820F0F4
:100E100004003060A068B8B1FFF704FC00900FE058
:100E2000306840F00100F4E740F004003060F7E77C
:100E3000FFF7F8FB0099411A41F28830814266D8E9
:100E400030688007F4D50EE0FFF7ECFB009007E078
:100E5000FFF7E8FB0099411A41F28830814256D8E9
:100E600030688007F4D42FB1DBF8001021F08051F6
:100E7000CBF80010A069C8B33D49091D0968C1F34A
:100E8000810102294AD00228504607D0C8F86000E4
:100E900000E03CE0FFF7C6FB04463BE04746C8F8ED
:100EA0006000FFF7BFFB064605E000BFFFF7BAFB97
:100EB000801B02282BD828688001F7D4D4E90701C9
:100EC0000843A16A2E4A490802EB0141626A41EADD
:100ED0008211084394F82C1040EA0161C9F800100F
:100EE00001203866FFF79EFB044606E03EE000BFA7
:100EF000FFF798FB001B022809D828688001F7D566
:100F000034E000BFFFF78EFB001B022802D903204C
:100F1000BDE8F88F28688001F4D427E00128F7D0D5
:100F2000D9F80000E26900F4800191421CD1226AE4
:100F300000F03F01914217D147F6C071626A01404B
:100F4000B1EB821F10D1A26A4FF0FF3300F44031A1
:100F500003EB5202B1EB024F06D194F82C1000F0D3
:100F60007060B0EB016F01D00120D1E70020CFE726
:100F70000438024000004742800E474200700040A3
:100F80000000FFFF10B5401EB0F1807F01D30120AB
:100F900010BD4FF0E02460610F21601700F0AFFB3F
:100FA0000020A06107202061002010BDFEE701683D
:100FB0004A69D24352050FD46FF480624A6100211E
:100FC00040F8301F202242738173026942F004020C
:100FD000026101730120704700207047F8B5044694
:100FE000C06A1E460D461746082807D0012805D0BE
:100FF00010F5803F02D0206B122804D120680168D0
:1010000041F480710160134600224FF00111204627
:10101000009600F05DF840B120680068C00502D578
:101020004FF4007020640320F8BD2069B0F5804FB4
:101030000ED00620216800EAD51040F0F0000861CB
:1010400033463A460B49204600F08AF878B902E068
:1010500005F0FE0000E0E8B221680861054933466A
:101060003A46891F204600F07BF80028DCD001209A
:10107000F8BD00000800010070B516460D46044694
:101080001EE02046FFF793FF08B1012070BD681CE9
:1010900016D0FFF7C7FA801BA84200D885B9206890
:1010A0004069C04340070BD5002044F8300F202191
:1010B0006173A073216941F0200121612073E4E78D
:1010C00020684069C0434007DBD4002070BD0000A9
:1010D0002DE9F047984617460D460446C1F30746EA
:1010E000DDF820902AE000BFB8F1FF3F26D0FFF7DF
:1010F00099FAA0EB0901414502D8B8F1000F1DD1C2
:101100002068012E16D0806925EA00000004000C3A
:1011100012D00020B84211D1002044F8300F202115
:101120006173A073216941F02001216120730120C6
:10113000BDE8F0874069E7E70120EBE72068012E72
:101140000AD0806925EA00000004000C06D00020C7
:10115000B842C9D00020EBE74069F3E70120F7E788
:101160002DE9F047984616460D4604464FF0000913
:101170004FF0200AC1F3074723E020684069C043CD
:10118000400515D42068016841F4007101602168B0
:101190006FF480604861C4F8309084F83DA084F812
:1011A0003E90216C41F00401216484F83C9021E0E0
:1011B000701C06D0FFF736FAA0EB0800B04203D847
:1011C00016B1012F1FD021E02068012F15D08069B2
:1011D00025EA00000004000C18D000BF44F8309F3E
:1011E00084F80DA084F80E90216941F0200121615E
:1011F00084F80C900120BDE8F087406925EA0000E2
:101200000004000CEAD12068406901E02068806990
:1012100025EA00000004000CAFD1ECE770B51646DB
:101220000D4604461EE02046FFF7C1FE08B101202E
:1012300070BD681C16D0FFF7F5F9801BA84200D8D6
:1012400085B920684069C04300060BD5002044F8EA
:10125000300F20216173A073216941F020012161C9
:101260002073E4E720684069C0430006DBD4002017
:1012700070BD000030B587B014216846FFF76BF8E9
:101280001648016841F080010160016801F08001A9
:101290000591016841F002010160016801F002015D
:1012A0000591016841F00101016000680C4D00F0FA
:1012B00001004FF440640590002221462846FFF7C4
:1012C000ABF91120CDE900400120029003200390EA
:1012D00069462846FFF7A8F807B030BD303802400D
:1012E000000402400D4810B50B4901600C494160F3
:1012F00000214FF480428160C0E9031241618161A5
:10130000C1610162FFF794F9002803D0BDE81040E5
:10131000FFF787B810BD0000005400401000002007
:10132000A0860100FEE7FEE770B5002400212046FC
:1013300000F068F80025002000F078F96D1CEDB28F
:10134000802DF8D3641CE4B2082CEFD370BD10B527
:1013500000204FF47A720021491C9142FCD3401CBA
:101360009042F8D3AE2000F04FF9D52000F04CF9B0
:10137000802000F049F9A82000F046F93F2000F055
:1013800043F9D32000F040F9002000F03DF940205F
:1013900000F03AF9A12000F037F9C82000F034F944
:1013A000DA2000F031F9122000F02EF9812000F04F
:1013B0002BF9CF2000F028F9D92000F025F9F120F1
:1013C00000F022F9DB2000F01FF9302000F01CF9BA
:1013D000A42000F019F9A62000F016F98D2000F0E5
:1013E00013F9142000F010F9AF2000F00DF9BDE85A
:1013F0001040FFF799BF0246012000E05043491E0C
:10140000FCD2704710B50C4640F0B00000F0FCF87C
:10141000102040EA141000F0F7F804F00F00BDE8C7
:10142000104000F0F1B800002DE9F04104461646E6
:1014300040004FF0FF32801E02EB4408012B4CD0DD
:10144000491E01EB4105621E6D0006EB4607022BAB
:101450006AD0032B7BD0042B3DD101EB41008700E8
:1014600002EB4200F9B2C0B2FFF7CCFF4A4906EBEB
:10147000C600002501EB80067019A0F5805090F899
:10148000800B00F0D3F86D1CEDB20C2DF4D304EBFF
:101490004405A81EF9B2C0B2FFF7B4FF002430190A
:1014A000A0F5805090F88C0B00F0C0F8641CE4B2FA
:1014B0000C2CF4D36D1EF9B2E8B2FFF7A3FF0024A1
:1014C0003019A0F5805090F8980B00F0AFF8641C2C
:1014D000E4B20C2CF4D3BDE8F081CD00083DE9B2B4
:1014E000C0B2FFF78FFF2D48002400EB061630191D
:1014F000A0F5805090F8000E00F098F8641CE4B25B
:10150000082CF4D3E9B208F0FF00FFF77BFF0024BA
:101510003019A0F5805090F8080E00F087F8641C90
:10152000E4B2082CF4D3D6E7E9B2D0B2FFF76AFFF1
:101530001B48002400EB4705281910F8C00C00F0E8
:1015400075F8641CE4B2062CF6D3C4E7FFE7C0B21A
:10155000E9B2FFF757FF1348002400EB8706301964
:10156000A0F5805090F8800E00F060F8641CE4B2A2
:10157000062CF4D3E9B208F0FF00FFF743FF002484
:101580003019A0F5805090F8860E00F04FF8641CDA
:10159000E4B2062CF4D39EE7F62300086A1700088D
:1015A0005A1D0008821F00082DE9F0471E46DDF88D
:1015B00020901400884682464B4604D42B22FFF725
:1015C00033FF254603E02D22FFF72EFF654200245E
:1015D0000A2715E0311B0A20491EFFF70CFFB5FB57
:1015E000F0F0B0FBF7F107FB110208EB0400401C20
:1015F000C1B24B4650463032FFF716FF641CE4B2CE
:10160000B442E7D3BDE8F0871CB500218DF8041083
:101610008DF80500481E0090022301AA7821024897
:10162000FFF7CAF81CBD0000100000201CB54021C7
:101630008DF804108DF805004FF0FF300090022364
:1016400001AA78210148FFF7B7F81CBD100000205F
:1016500070477047FFF77AB930B593B030216846CC
:10166000FEF779FE14210CA8FEF775FE1D48002533
:10167000016841F080510160006800F080501190D5
:101680001948016841F4804101600068022400F4B7
:101690008040119001200090000401908001CDE96C
:1016A000064008AA0420A82182E813000B9068468F
:1016B000FFF7B2FA08B172B6FEE70CA90F2081E875
:1016C00031004FF4A0500F904FF48050109005213E
:1016D0000CA8FFF7C7F9002801D072B6FEE713B0D7
:1016E00030BD0000403802400070004002480168F0
:1016F00041F470010160704788ED00E0FEE70907E2
:10170000090E002804DB00F1E02080F80014704787
:1017100000F00F0000F1E02080F8141D704708B5BC
:10172000FFF71CF9FFF798FFFFF7A4FDFFF7DAFDBD
:10173000FFF70DFE04200121009003236FF05402F7
:101740000846FFF731FFFEE74FF04070E1EE100A68
:1017500070470000000000000000010203040607BB
:10176000080900000000010203040000000000005E
:1017700000000000000000000000000000F8000071
:101780000000000000333000000000100C06100CB8
:101790000600000000000000000040C07840C07853
:1017A0004000043F04043F040400007088FC08303B
:1017B0000000001820FF211E0000F008F000E018D3
:1017C000000000211C031E211E0000F0088870008C
:1017D00000001E2123241927211010160E000000DE
:1017E00000000000000000000000000000E01804FD
:1017F0000200000000071820400000020418E0006A
:1018000000000040201807000000404080F08040A9
:1018100040000202010F01020200000000F000007F
:1018200000000101011F0101010000000000000093
:10183000000080B070000000000000000000000008
:101840000000000101010101010100000000000091
:101850000000003030000000000000000000806048
:101860001804006018060100000000E010080810CD
:10187000E000000F102020100F00001010F80000F2
:1018800000000020203F2020000000700808088889
:101890007000003028242221300000300888884859
:1018A00030000018202020110E000000C02010F889
:1018B000000000070424243F240000F8088888085A
:1018C00008000019212020110E0000E0108888185F
:1018D0000000000F112020110E0000380808C83841
:1018E00008000000003F0000000000708808088821
:1018F0007000001C222121221C0000E010080810AA
:10190000E0000000312222110F00000000C0C000E2
:1019100000000000003030000000000000800000E7
:1019200000000000806000000000000080402010E7
:1019300008000001020408102000404040404040E0
:101940004000040404040404040000081020408043
:101950000000002010080402010000704808080878
:10196000F0000000003036010000C030C828E81048
:10197000E0000718272423140B000000C038E00003
:101980000000203C23020227382008F8888888704D
:101990000000203F202020110E00C0300808080859
:1019A0003800071820202010080008F80808081040
:1019B000E000203F202020100F0008F88888E80869
:1019C0001000203F20202320180008F88888E8080D
:1019D0001000203F200003000000C0300808083835
:1019E000000007182020221E020008F80800000846
:1019F000F808203F210101213F20000808F80808CD
:101A000000000020203F2020000000000808F80807
:101A10000800C08080807F00000008F888C0281877
:101A20000800203F20012638200008F808000000A8
:101A30000000203F20202020300008F8F800F8F8AF
:101A40000800203F003F003F200008F830C0000899
:101A5000F808203F200007183F00E0100808081091
:101A6000E0000F10202020100F0008F808080808D8
:101A7000F000203F210101010000E01008080810DB
:101A8000E0000F18242438504F0008F88888888810
:101A90007000203F2000030C3020007088080808E8
:101AA00038000038202121221C00180808F80808F6
:101AB00018000000203F2000000008F8080000087F
:101AC000F808001F202020201F000878880000C888
:101AD0003808000007380E010000F80800F8000878
:101AE000F800033C0700073C030008186880806882
:101AF000180820302C03032C30200838C800C838C0
:101B000008000000203F2000000010080808C83826
:101B100008002038262120201800000000FE0202C4
:101B200002000000007F40404000000C30C0000078
:101B30000000000000010638C00000020202FE00A2
:101B40000000004040407F0000000000040202024C
:101B50000400000000000000000000000000000081
:101B6000000080808080808080800002020400006D
:101B70000000000000000000000000008080808065
:101B800000000019242222223F2008F80080800053
:101B90000000003F112020110E0000000080808016
:101BA0000000000E1120202011000000008080881D
:101BB000F800000E112020103F200000808080805F
:101BC0000000001F222222221300008080F088885B
:101BD00088180020203F20200000000080808080A6
:101BE0008000006B94949493600008F800808080DB
:101BF0000000203F210000203F2000809898000036
:101C000000000020203F2020000000000080989865
:101C1000000000C08080807F000008F80000808005
:101C20008000203F24022D302000000808F800002A
:101C300000000020203F20200000808080808080E5
:101C40008000203F20003F20003F80800080808077
:101C50000000203F210000203F2000008080808085
:101C60000000001F202020201F00808000808000B6
:101C7000000080FFA12020110E0000000080808065
:101C80008000000E112020A0FF80808080008080D6
:101C9000800020203F212000010000008080808003
:101CA00080000033242424241900008080E08080F8
:101CB00000000000001F2020000080800000008045
:101CC0008000001F202020103F20808080000080A6
:101CD000808000010E3008060100808000800080B6
:101CE00080800F300C030C300F000080800080805B
:101CF00080000020312E0E31200080808000008086
:101D0000808080818E701806010000808080808035
:101D100080000021302C2221300000000000807C57
:101D2000020200000000003F404000000000FF00F1
:101D3000000000000000FF0000000002027C8000A4
:101D400000000040403F00000000000601010202C8
:101D5000040400000000000000000000000000007B
:101D60000000002F000000000700070000147F148F
:101D70007F1400242A7F2A1200626408132300368D
:101D80004955225000000503000000001C224100BC
:101D9000000041221C000014083E08140008083E00
:101DA0000808000000A060000008080808080000FB
:101DB00060600000002010080402003E5149453ECA
:101DC0000000427F400000426151494600214145E8
:101DD0004B31001814127F10002745454539003C4F
:101DE0004A4949300001710905030036494949361D
:101DF00000064949291E000036360000000056360C
:101E000000000008142241000014141414140000EF
:101E10004122140800020151090600324959513E7D
:101E2000007C1211127C007F49494936003E414135
:101E30004122007F4141221C007F49494941007FE6
:101E400009090901003E4149497A007F0808087FD5
:101E50000000417F4100002040413F01007F081405
:101E60002241007F40404040007F020C027F007F03
:101E70000408107F003E4141413E007F09090906E8
:101E8000003E4151215E007F09192946004649491B
:101E900049310001017F0101003F4040403F001FE8
:101EA0002040201F003F4038403F00631408146367
:101EB00000070870080700615149454300007F4151
:101EC000410000552A552A55000041417F00000479
:101ED00002010204004040404040000001020400B2
:101EE000002054545478007F484444380038444417
:101EF000442000384444487F0038545454180008A3
:101F00007E0901020018A4A4A47C007F08040478C0
:101F10000000447D4000004080847D00007F102848
:101F200044000000417F4000007C04180478007CDD
:101F30000804047800384444443800FC242424185D
:101F40000018242418FC007C080404080048545499
:101F5000542000043F444020003C4040207C001CB2
:101F60002040201C003C4030403C004428102844C5
:101F7000001CA0A0A07C004464544C44141414140D
:101F80001414000000000000000000000000000029
:101F9000FC000000000002000000000C020C020027
:101FA00000000000000090D0BCD0BC9000030003F3
:101FB00000001824FE448C000302070201001824CC
:101FC000D8B04C80000300010201C038E438E000C2
:101FD00001020201020208060000000000000000E9
:101FE0000000000000F804020000000102040002EA
:101FF00004F800000004020100009060F860900006
:102000000000010000002020FC2020000000010052
:102010000000000000000000080600000000202072
:102020002020200000000000000000000000000050
:102030000002000000000080601C02000403000099
:102040000000F8040404F800010202020100000884
:10205000FC00000000020302000018844424180061
:1020600003020202020008042424D8000102020232
:10207000010040B088FC80000000000302003C2406
:102080002424C400010202020100F824242CC00010
:102090000102020201000C04E41C04000000030021
:1020A0000000D8242424D800010202020100384490
:1020B0004444F80000030202010000001000000088
:1020C00000000200000000002000000000000600E8
:1020D00000000020508804020000000001029090DF
:1020E0009090900000000000000000020488502042
:1020F0000002010000001804C424180000000200BF
:102100000000F804E494F80001020202020000E07A
:102110009CF0800002030000030204FC2424D80089
:10212000020302020100F80404040C00010202028E
:10213000010004FC0404F80002030202010004FC94
:1021400024740C0002030202030004FC24740C003B
:10215000020302000000F0080444CC400001020227
:10216000010004FC2020FC0402030000030204041C
:10217000FC040400020203020200000404FC040444
:1021800006040403000004FC24D00C040203020033
:10219000030204FC04000000020302020203FC3CF0
:1021A000C03CFC0003000300030004FC30C4FC043A
:1021B000020302000300F8040404F8000102020212
:1021C000010004FC24241800020302000000F8842B
:1021D0008404F80001020207050004FC246498004E
:1021E000020302000302182424448C0003020202AA
:1021F00001000C04FC040C0000020302000004FCBB
:102200000000FC04000102020100047C80E01C04C8
:102210000000030000001CE03CE01C000003000381
:102220000000049C609C0400020300030200041CE4
:10223000E01C04000002030200000C84641C040083
:102240000203020203000000FE0202000000070475
:102250000400000E30C00000000000010200000277
:1022600002FE000000040407000000040204000055
:10227000000000000000000000000000080808083E
:1022800008080000020000000000000000000040FC
:10229000A0A0C00000010202030204FC2020C00034
:1022A00000030202010000C02020600000010202C1
:1022B000020000C02024FC0000010202030200C052
:1022C000A0A0C0000001020202000020F8242404A3
:1022D0000002030202000040A0A0602000070A0ADA
:1022E0000A0404FC2020C0000203020003020020B4
:1022F000E4000000000203020000000020E40000EF
:1023000008080807000004FC80E020200203020007
:1023100003020404FC000000020203020200E020A9
:10232000E020C00003000300030020E02020C000E4
:1023300002030200030200C02020C00000010202CC
:10234000010020E02020C000080F0A02010000C0A8
:102350002020E0000001020A0F0820E040202000B9
:102360000203020000000060A0A0200000020202A0
:1023700003000020F820000000000102020020E01D
:102380000020E00000010202030220E02080602023
:102390000000030100006080E08060000003000393
:1023A000000020608060200002030003020020E0A3
:1023B000208060200808070100000020A0602000A5
:1023C000000203020200000020DE020000000007FD
:1023D0000400000000FF00000000000F00000002E9
:1023E000DE200000000407000000020102040402D5
:1023F00000000000000000000000000000000000DD
:1024000000000000000000000000000000000000CC
:10241000000000000000000000000000000000F0CC
:10242000F0F0000000000000000000017F0100004B
:10243000000000000000001C1C1C00000000000048
:102440008060301C8C60301C0C000000000000001C
:10245000000000000000000000000000000000007C
:102460000000000000E00000000000E00000008626
:10247000E69F86868686E69F860000011F01010191
:1024800001011F010100000080C06020F820E0C0B1
:102490000000000003070C18FF70E181000000003D
:1024A000070F10107F100F07000080602060800071
:1024B0000000E02000000F3020309F70DC3710302B
:1024C000C0000000100E03000718101807000000DD
:1024D000C02020E0C0000000000080E01F38E88736
:1024E00003C43C040000070F1810100B070D101058
:1024F000080000808C4C3800000000000000000044
:1025000000000000000000000000000000000000CB
:1025100000000000000000000000000080E0300823
:1025200004000000000000FEFF01000000000000A9
:1025300000000000030F1820400000040830E08075
:102540000000000000000000000001FFFE0000008D
:102550000000004020180F030000000000000000F1
:1025600000000000C00000000000004266663C1849
:10257000FF183C66664200000000000003000000F7
:1025800000000000000000008000000000000010BB
:1025900010101010FF1010101010000000000000AC
:1025A0000300000000000000000000000000000028
:1025B000000000000000000000000000000000809B
:1025C0008C4C3800000000000000000000000000FB
:1025D000000000000000001010101010101010106B
:1025E00010000000000000000000000000000000DB
:1025F00000000000000000000000000000000000DB
:1026000000000000000000001C1C1C000000000076
:1026100000000000000000000000E0380C00000096
:10262000000080701C03000000000060380E0100F4
:10263000000000000000000080C060202060C0801A
:10264000000000FEFF010000000001FFFE0000018D
:10265000070E181010180E0701000000808080C0BF
:10266000E000000000000000000000FFFF0000008C
:10267000000000001010101F1F101010000000803C
:10268000402020202060C080000000030300804024
:1026900020381F070000001C1A1918181818181FD6
:1026A00000000080C020202060C0800000000003E7
:1026B00003001010182FE780000000070F10101003
:1026C00010180F070000000000000000C0E0F0003C
:1026D000000000C0B088868180FFFF80800000007D
:1026E00000000010101F1F1010000000E06060606C
:1026F00060606060000000003F1008080818F0E00B
:10270000000000070B101010101C0F030000000049
:1027100080C040202020E0C0000000FCFF21100805
:10272000080818F0E0000001070C18101010080F3E
:1027300003000000C0E06060606060E060000000D6
:1027400003000000E0180700000000000000001F68
:102750001F00000000000080C0602020202060C01A
:1027600080000087EF2C1818303068CF83000007F6
:102770000F0810101010180F07000000C0C0202014
:102780002020C0800000001F3F604040402010FF1C
:10279000FE0000000C1C101010080F0300000000C9
:1027A0000000000000000000000000000000000E1B
:1027B0000E0E0000000000000000001C1C1C0000A9
:1027C0000000000000000000000000000000000009
:1027D0000000000C0C000000000000000000005889
:1027E00038000000000000000000000000804020D1
:1027F00010000000102844820100000000000000CA
:1028000000000000010204081000000000000000A9
:102810000000000000000084848484848484848414
:102820008400000000000000000000000000000024
:1028300010204080000000000000000000000000A8
:10284000018244281000000010080402010000006A
:10285000000000C020201010101030E0C000000365
:10286000030000F010080C070300000000001C1C0F
:102870001C0000000000000000C04060202020403C
:10288000C00000FCFF01F00E03C1FE03807F0001C9
:10289000070E08111110110904020000000080E069
:1028A000E000000000000000807C4340477FF8808B
:1028B000000010181F1000000000131F1C1020E063
:1028C000E02020202060C080000000FFFF101010DA
:1028D00010182FE78000101F1F1010101010180F75
:1028E0000700000080C0402020202060E00000FCA5
:1028F000FF0100000000000001000001070E181099
:1029000010100804030020E0E02020202040C080B8
:10291000000000FFFF000000000001FFFE00101F8C
:102920001F10101018080E07010020E0E0202020E2
:1029300020202060800000FFFF101010107C00009D
:102940000000101F1F10101010101018060020E0BB
:10295000E020202020206060800000FFFF10101089
:10296000107C00000100101F1F100000000000007C
:102970000000000080C06020202040E0000000FC3B
:10298000FF0100004040C0C140400001070E181088
:1029900010100F0F000020E0E0200000000020E0F9
:1029A000E02000FFFF101010101010FFFF00101F9C
:1029B0001F1000000000101F1F100000202020E04A
:1029C000E020202000000000000000FFFF000000C9
:1029D000000000001010101F1F1010100000000059
:1029E0000000202020E0E020202000000000000067
:1029F00000FFFF0000000060E0808080C07F3F009B
:102A0000000020E0E020000020A06020200000FF67
:102A1000FF30187CE3C000000000101F1F100000F2
:102A200001131F1C181020E0E0200000000000002F
:102A3000000000FFFF000000000000000000101F69
:102A40001F10101010101018060020E0E0E0000029
:102A50000000E0E0E02000FF013FFEC0E01E01FFBB
:102A6000FF00101F1000031F0300101F1F1020E0A5
:102A7000E0C0000000000020E02000FF0003071C71
:102A800078E08000FF00101F100000000000030F1E
:102A90001F00000080C060202060C080000000FE99
:102AA000FF010000000000FFFE000001070E1810EB
:102AB00010180C07010020E0E0202020202060C03A
:102AC000800000FFFF2020202020301F0F00101F5B
:102AD0001F100000000000000000000080C0602007
:102AE0002060C080000000FEFF010000000000FF29
:102AF000FE000001070E1111133C7C67210020E04D
:102B0000E0202020202060C0800000FFFF10103057
:102B1000F0D0080F0700101F1F10000000030F1C4B
:102B200010100080C060202020204040E0000007FE
:102B30000F0C1818303060E08100001F0C081010D6
:102B40001010180F07008060202020E0E0202020D7
:102B500060800100000000FFFF0000000001000095
:102B60000000101F1F100000000020E0E020000007
:102B700000000020E02000FFFF0000000000000037
:102B8000FF0000070F181010101010080700206039
:102B9000E0E02000000020E060200000077FF880D7
:102BA00000807C03000000000000071F1C070000DD
:102BB000000020E0E02000E0E0200020E02000070E
:102BC000FFF8E01FFFFCE01F00000000031F0300F0
:102BD000011F03000000002060E0A0000020E06072
:102BE0002000000000038F7CF8C6010000000010E8
:102BF000181E130001171F1810002060E0E02000CD
:102C0000000020E06020000001073EF8E018070007
:102C1000000000000010101F1F10100000000080B6
:102C20006020202020A0E0E0200000000000C0F094
:102C30003E0F0300000000101C1F1710101010188A
:102C400006000000000000FC04040404040000006E
:102C5000000000FF00000000000000000000007FF6
:102C6000404040404000000010E000000000000034
:102C7000000000000000031C608000000000000055
:102C80000000000000030C70800000000404040435
:102C900004FC0000000000000000000000FF000035
:102CA0000000000040404040407F00000000000065
:102CB0000010080C040C08100000000000000000C8
:102CC0000000000000000000000000000000000004
:102CD00000000000000000000000000000000000F4
:102CE00000000000000000000000808080808080E4
:102CF00080808080808000000004040808000000BC
:102D000000000000000000000000000000000000C3
:102D100000000000000000000000000000000000B3
:102D2000000000000000000098D844642424FCF84F
:102D30000000000F1F18101010081F1F101800208F
:102D4000E0F000000000000000000000FFFF180895
:102D500004040CF8F00000001F0F18101010180FDA
:102D6000030000000000000000000000000000E080
:102D7000F8180404043C3800000000030F0C101085
:102D80001010080600000000000000000020E0F025
:102D9000000000E0F81C04040408FFFF000000032A
:102DA0000F18101010081F0F08000000000000008E
:102DB0000000000000000000E0F8484444444C7863
:102DC00070000000030F0C18101010080400000021
:102DD000000080C0602020E0C00000040404FFFF69
:102DE000040404040000000010101F1F1010100045
:102DF00000000000000000000000000000000000D3
:102E000070F88C04048CF874040C007076CF8D8DEF
:102E10008D89C87870000020E0F0000000000000FC
:102E200000000000FFFF08040404FCF8000000108C
:102E30001F1F100000101F1F100000000000006086
:102E40006000000000000000040404FCFC0000001E
:102E5000000000001010101F1F10101000000000D4
:102E6000000000000060600000000000000004049A
:102E700004FCFC0000000000C0C08080C07F3F0058
:102E800000000020E0F00000000000000000000052
:102E9000FFFF80C0F41C0404000000101F1F11007D
:102EA000031F1C1010000000202020E0F000000094
:102EB00000000000000000FFFF0000000000000014
:102EC0001010101F1F101010000000000000000064
:102ED00000000000000004FCFC0804FCFC0804FCEA
:102EE000FC00101F1F10001F1F10001F1F100000EC
:102EF000000000000000000000000004FCFC0808C6
:102F00000404FCF8000000101F1F100000101F1F19
:102F1000100000000000000000000000000000E0C1
:102F2000F0180C04040C18F0E00000030F0C101053
:102F300010100C0F03000000000000000000000053
:102F400000000004FCFC080404040CF8F0000080FD
:102F5000FFFF889010101C0F03000000000000000D
:102F600000000000000000E0F81C04040408F8FC65
:102F7000000000030F1810109088FFFF8000000071
:102F800000000000000000000000040404FCFC102D
:102F90000804040C0C001010101F1F10101000006B
:102FA0000000000000000000000000000000000021
:102FB0003078CCC48484840C1C0000001E181010CF
:102FC0001011190F06000000000000C000000000F2
:102FD000000000040404FFFF0404040000000000DB
:102FE00000000F1F1010100C000000000000000077
:102FF0000000000000000004FCFE00000004FCFED5
:10300000000000000F1F181010081F0F080000001C
:103010000000000000000000000000040C3CFCC4A4
:103020000000C43C0C0400000000010F1E0E010053
:103030000000000000000000000000000000043C50
:10304000FCC400E47CFC84807C040000071F0700B3
:1030500000071F0700000000000000000000000043
:1030600000000004041C7CE4C0341C0404000010B4
:10307000101C1601131F1C18100000000000000097
:1030800000000000000000040C3CFCC400C43C0430
:1030900004000000C080C1370E01000000000000E5
:1030A0000000000000000000000000001C0404C438
:1030B000F47C1C0400000000101C1F1711101018D5
:1030C0000E0000000000000000F80C0400000000EA
:1030D0000000001028EF00000000000000000000C9
:1030E000003F60400000000000000000FF00000002
:1030F0000000000000000000FF00000000000000D1
:1031000000000000FF00000000000000040CF800B8
:1031100000000000000000000000EF281000000088
:103120000000000040603F000000000000000018A8
:1031300006020204081020203008000000000000F1
:10314000000000000000000000000000000000007F
:103150000000000074310008000000201000000092
:10316000C40100088431000810000020B8060000E7
:10317000E001000801000000100000000000000055
:043180000024F40033
:040000050800018965
:00000001FF
